:020000040800F2
:10000000003000205D030008000000000000000038
:1000100000000000000000000000000000000000E0
:10002000C50A00080000000000000000310B0008B5
:10003000000000000000000000000000750B000838
:1000400000000000000000000000000000000000B0
:1000500000000000000000000000000000000000A0
:100060000000000000000000000000000000000090
:100070000000000000000000000000000000000080
:100080000000000000000000000000000000000070
:100090000000000000000000000000000000000060
:1000A0000000000000000000000000000000000050
:1000B0000000000000000000000000000000000040
:1000C00030B515000124013D6400002DFBD1651EF3
:1000D0004A43290091402B40934004688C430460BC
:1000E00001680B43036030BD70B5002801D072B6C3
:1000F000FEE70124A0262500F6052A006C40230116
:100100000A339A40FA20B261400000F04DFCF4E757
:10011000074B821E9A4207D8064B013858600722C7
:10012000002098601A60704701204042FBE7C046FB
:10013000FEFFFF0010E000E02C4BF7B51A688023AB
:100140000E001168DB020B431360294B80021A6812
:10015000802311685B030B431360264B0222C018F7
:1001600031000323FFF7ACFF2348002301220F21B6
:100170000068FFF7A5FF214B1C211F6801233800F1
:100180001A00FFF79DFF0023FA2201939200019BC2
:10019000934227DB01231F211A003800FFF790FF4D
:1001A0003B68002BFCDB0124154B00211A6838004A
:1001B000136801331360134B22001D6823002C6069
:1001C000FFF77EFF2B682342FCD08023B4400E4A09
:1001D0009B0112682B6011680C4314602A681A4254
:1001E000FCD0F7BD019B01330193D0E70400002050
:1001F0001C00002000FCFE4F080000201000002022
:1002000000000020140000200C000020002800D175
:100210007047C0460138F9E710B5A0240223E40571
:100220001A0019002000FFF74BFF02232000114C99
:100230001A000321FFF744FF2000012304220221BA
:10024000FFF73EFF0123042203212000FFF738FFC0
:100250008022094B92021B6819680A431A60002227
:100260001B68064B1A60A132FF32DA60943AFF3AFB
:100270001A6010BD2000005018000020004400400B
:1002800070B5040080262378002B00D170BD054D89
:100290000134AB62EB693342F5D10120FFF7B6FFC1
:1002A000F8E7C0460044004010B500280BD1FA24FE
:1002B00064000648FFF7E4FF200000F075FB0448E7
:1002C000FFF7DEFFF5E772B6FEE7C046EC0F000869
:1002D000F80F00087047000010B50C48FFF718FF32
:1002E0000B4BA020196801230A68C0051A430A6055
:1002F00002220A21FFF7E4FEFFF78EFF0548FFF711
:10030000BFFF00214120FFF717FF10BD80BB000099
:10031000200000200510000813B5FFF7DDFF0024C2
:10032000012332220093094923000194084800F078
:10033000FBF8022332220749009301942300064868
:1003400000F0F2F800F0C6F9200016BD0C1000080D
:10035000A902000811100008E90000080E4B0F491F
:10036000002210B50E488B4203D303331A1A9208A9
:1003700092000C4900F068FD0B4B0C4900220C4820
:100380008B4203D303331A1A92089200002100F023
:1003900007FDFFF7C1FFFEE72C000020FDFFFF1F58
:1003A0000000002020100008300900202900002053
:1003B0002C0000200300083301224360C360036166
:1003C000002352428260036070470023036170473C
:1003D000020030B50C680832631C0AD103695A6800
:1003E0004A6091608B605960036808610133036063
:1003F00030BD130052681568A542FAD9EFE70369CA
:10040000416882688A6051605968814200D15A60AF
:10041000002202611A68013A1A60186870470000E9
:10042000F8B504001B4B1C4D1E6828680F000430F3
:10043000FFF7E5FF631C14D1002F12D0174B29687A
:100440005A688A6090682968C860296804314160E8
:100450002968043191602A6853611A6801321A6070
:10046000F8BD2B6834195C60A64206D90C4B18689D
:1004700029680431FFF7ACFFF2E70A4B18682968D6
:100480000431FFF7A5FF084B1A68A242E8D91C60A7
:10049000E6E7C046280900202C00002000090020C3
:1004A0003800002030000020CC080020064A1368E5
:1004B0001968064B002903D1012252421A60704785
:1004C0001268D2681268F9E730000020CC080020DA
:1004D00070B5114C2368002B06D1104B1B68012B03
:1004E000F7D900F0F1FAF4E700F0FAFA0C4BDB6808
:1004F000DD68281DFFF783FF0A4A1368013B13607C
:100500002368013B236000F0F7FA286B00F022FC1F
:10051000280000F01FFCDCE7880800203C000020D9
:100520001409002084080020F0B5940085B00290E2
:1005300020000D00039300F08BFB061E03D1012069
:10054000404205B0F0BD602000F082FB071E00D1E4
:10055000A1E06022002100F023FC220030003E6375
:10056000A52100F01DFC3B6B221F9E18072296431D
:100570007E64002D0DD0390000233431EA5CCA546A
:10058000002A02D00133102BF8D13B000022433364
:100590001A700A9B372B01D972B6FEE70A9BFB62E1
:1005A0003B653B1D18000193FFF70FFF3800183023
:1005B000FFF70BFF38230A9A30009B1ABB61039A9E
:1005C00002993F617F6200F06DFA0B9B3860002B4F
:1005D00000D01F6000F084FA314B324D1A68324E61
:1005E00001321A602C68002C4AD12F601B68012B45
:1005F0001ED11420604301343018FFF7DBFE382C85
:10060000F7D12A4C2000FFF7D5FE294B18000293A2
:10061000FFF7D0FE2748FFF7CDFE2748FFF7CAFEB9
:100620002648FFF7C7FE264B029A1C60254B1A602E
:10063000254A136801331360BB64244BFA6A1968B6
:100640008A4200D91A6014235343F1184A68019C66
:100650009068BA60F86044609460F2587961013241
:10066000F25000F049FA1A4B1B68002B06D02B6899
:10067000DA6AFB6A9A4201D200F026FA012060E7AA
:10068000134B1A68FB6A002AD2D12A68D26A9A42AE
:10069000CED82F60CCE7300000F05CFB4FE7C046BF
:1006A000840800202C0000203C0000209808002036
:1006B000AC080020E00800201409002000090020F8
:1006C000300000203800002090080020940800200E
:1006D000F408002013B500240F4B802201930F492A
:1006E00023000F480094FFF71FFF01280FD172B6B7
:1006F00001220C4B52421A600B4B18600B4B1C60D2
:10070000FFF7E8FD00F062FA094B1B6813BD0130EA
:10071000FAD172B6FEE7C046C408002017100008E0
:10072000D1040008CC080020F4080020280900208B
:100730001C100008024A1368013313607047C0465A
:100740008C080020F0B54A4B85B01B68002B00D008
:1007500085E0484B1F6801371F60002F11D1464BC1
:100760001A681268002A01D072B6FEE7434A196877
:10077000106818601160424A136801331360FFF774
:1007800095FE404B00201B689F420FD214223E4B27
:100790001B68D96A3D4B4A43D358012B00D901202D
:1007A0003B4B1B68002B60D105B0F0BD324B029370
:1007B0004BE0029B1B68DB68DB685A68974201D2FA
:1007C000304B4AE09C68D9685A69A1604C601C1D96
:1007D000019454681D1DAC4200D151600021596143
:1007E0001168013911609A6A002A0ED0DC69196A11
:1007F0005568A1604C601C001834A54200D15160BE
:1008000000219962116801391160224AD96A14687D
:10081000A14200D9116014244C431C4A15190395B8
:100820006D680192AE681A1D9D60DE607260AA60FC
:10083000039A5A61019B019AE3580133A350124B6A
:100840001B68DB6A994200D90120029B1B681B6868
:10085000002BAED101220B4B52421A6096E70E4A92
:1008600000201368013313609EE701209CE7C04617
:100870008C080020280900203000002038000020CB
:10088000D0080020CC0800202C0000203C000020D4
:100890002C09002094080020DC080020F7B53A4C11
:1008A0002368002B01D172B6FEE700F019F9236826
:1008B000013B23602368002B04D0002400F01CF9C6
:1008C0002000FEBD314A1268002AF6D0304A01925B
:1008D0003BE0019BDB68DB68D869196A9A6A816032
:1008E0004860180054681830844200D151600021DB
:1008F00099621168013911605A699868D9681D1D9B
:10090000816048605068A84200D151601168013987
:100910001160204AD96A1068814200D91160142000
:1009200048431D4A17187C68A6689C60DE607560A5
:10093000A56084585F6101348450184A1268D26AF5
:10094000914202D30121164A1160019A1268002ACD
:10095000BFD1002B01D0FFF7A9FD124D2C68002C50
:100960000AD00126FFF7EEFE002801D00C4B1E60D6
:10097000013C002CF6D12C60094B1B68002B9CD04D
:1009800000F0A2F8012499E78C08002084080020D8
:10099000E0080020940800203C0000202C000020EB
:1009A0002C090020DC08002070B5041E02D100F0E4
:1009B0008BF870BD084B1D68002D01D072B6FEE7A4
:1009C000FFF7B8FE29002000FFF72AFDFFF766FFBA
:1009D0000028ECD0EDE7C0468C080020154B30B560
:1009E0001A68154B002A02D001221A6030BD142566
:1009F00012481A60026812492B0053435C58002CBD
:100A000012D0CC18656808336D685B1865609D422C
:100A100001D16B68636014235343C9184B68D968CC
:100A2000084B19600260E1E7002A01D172B6FEE7C7
:100A3000013AE1E78C0800202C09002094080020EE
:100A40003C0000202C000020002382B00193064BC4
:100A50001B68013301D072B6FEE772B6019B002B12
:100A6000FCD002B07047C046280000200000000003
:100A70000B4A13681868203080F30988022080F33D
:100A80001488BFF36F8F3FBCAE4608BC04BC62B68F
:100A90001847C046C046C046C046C046C046C046CD
:100AA0002C00002010B58024031F64041C60043B4C
:100AB00019600349043B1960143B40381A6010BDAB
:100AC000490A0008704700008022044B52051A6052
:100AD000BFF34F8FBFF36F8F7047C04604ED00E048
:100AE00072B6044A136801331360BFF34F8FBFF32C
:100AF0006F8F704728000020054A1368002B01D132
:100B000072B6FEE7013B1360002B00D162B670475E
:100B100028000020EFF3108072B6704780F3108831
:100B2000704700000000000000000000000000000E
:100B3000EFF309800E4B1A6820381060F0C044466D
:100B40004D4656465F46F0C008B572B6FFF746FF01
:100B500062B60CBC116808681030F0C8A046A946FF
:100B6000B246BB4680F309882038F0C81847C04613
:100B70002C00002010B5FFF7CDFF0400FFF7E2FDC9
:100B8000002803D08022034B52051A602000FFF793
:100B9000C5FF10BD04ED00E00023FA2110B5074A9F
:100BA000074C890023601360064B186800F092F927
:100BB000054B013818600723236010BD18E000E0E2
:100BC00010E000E02400002014E000E0FF220C4BC5
:100BD0001204196810B50A431A60FF22002419682C
:100BE00012060A431A60FFF7D7FF064B1C60FFF797
:100BF0003FFFFFF7F3FEFFF727FF200010BDC046C1
:100C000020ED00E02800002030B50F4B1A001B68D3
:100C10008342FBD354681119884203D14168100004
:100C200009195160446819000519AB4207D10749F9
:100C300009688B4203D0596809194160196801603D
:100C4000904200D0106030BDF80800203400002031
:100C5000F8B50400FFF76EFD384A1368002B1CD16D
:100C600037490733194241D0C8189843FA239B00EB
:100C7000CB1801001B1A0020324DCB186860296088
:100C80000725083BAB43186058601360581A0B6087
:100C90002D4B486018602D4B1860002C44D0072362
:100CA000234019001139A14244D31034A446E71A55
:100CB000002F3FDD25490E68BE423BD321490D6818
:100CC0006868B84202D22C68002C12D11268AA427D
:100CD00030D02A680C680A6062469B1A1B18102BD9
:100CE0000ED9E819420707D072B6FEE7FA239B0037
:100CF000C1E729002500E3E743606F60FFF784FF49
:100D00006A68124BB61A1E600F4B19688E4200D2E9
:100D10001E6080231B0613436B6000230C4A2B606C
:100D20001368083401331360FFF7B8FD630703D07D
:100D300072B6FEE70024F7E72000F8BD340000207B
:100D40009C040020F8080020C8080020C0080020EB
:100D5000D408002010B5041E1DD0083C6368002B89
:100D600001DB72B6FEE72268002A01D072B6FEE708
:100D70005B005B086360FFF7DDFC074A636811688E
:100D800020005B181360FFF73FFF044A136801332C
:100D90001360FFF783FD10BDC0080020D8080020B5
:100DA000F0B50500830749D0541E002A45D0030042
:100DB0000326CAB202E00135013C3ED301332A705A
:100DC0003342F8D1032C30D9FF220A401502AD1866
:100DD0002A04AD180F2C34D92700103F3F093E01DB
:100DE000B4461E001A0010366644156055609560C2
:100DF000D56010329642F8D101373F01DB190F2739
:100E00000C22274022403C00002A0ED03E1FB6088C
:100E1000B400A4461A001C1D644420C2A242FCD1A6
:100E200003240136B6009B193C40002C05D0C9B202
:100E30001C19197001339C42FBD1F0BD0300140052
:100E4000C0E72700E2E7C046F0B505000F2A31D918
:100E500003273E000D430C0003002E402F4234D1E7
:100E60001500103D2D09AC462F013F1865685D60E7
:100E7000A5689D60E568DD60256810341D601D0073
:100E80001033BD42F2D165460F230C2401352D01EC
:100E900049191340451914421AD0043B9B080133E9
:100EA0009B008C59AC5104369E42FAD10323AD19F4
:100EB00089191A40561E002A06D00023CC5C1A005D
:100EC000EC5401339642F9D1F0BD0500561EF4E70B
:100ED0001A00EFE7002243088B4274D303098B42C8
:100EE0005FD3030A8B4244D3030B8B4228D3030CFA
:100EF0008B420DD3FF22090212BA030C8B4202D39C
:100F00001212090265D0030B8B4219D300E0090AC3
:100F1000C30B8B4201D3CB03C01A5241830B8B42CC
:100F200001D38B03C01A5241430B8B4201D34B03B5
:100F3000C01A5241030B8B4201D30B03C01A52411A
:100F4000C30A8B4201D3CB02C01A5241830A8B429F
:100F500001D38B02C01A5241430A8B4201D34B0288
:100F6000C01A5241030A8B4201D30B02C01A5241EC
:100F7000CDD2C3098B4201D3CB01C01A52418309A0
:100F80008B4201D38B01C01A524143098B4201D3DA
:100F90004B01C01A524103098B4201D30B01C01A05
:100FA0005241C3088B4201D3CB00C01A524183087F
:100FB0008B4201D38B00C01A524143088B4201D3AC
:100FC0004B00C01A5241411A00D20146524110460C
:100FD0007047FFE701B5002000F006F802BDC046EB
:0C0FE0000029F7D076E770477047C04644
:100FEC00494E53494445205441534B0043616C6C6A
:100FFC00656420616761696E0048454C4C4F0A007E
:10100C005561727400426C696E6B0049444C45002A
:04101C003700000099
:10102000B4240140082701400C2401402824014039
:1010300008240140002401403C10024040100240BE
:0C10400034100240006CDC02AAAAAAAA2C
:040000050800035D8F
:00000001FF
