:020000040800F2
:1000000000300020A10200080000000000000000F5
:1000100000000000000000000000000000000000E0
:10002000000000000000000000000000C5130008F0
:1000300000000000000000003114000875140008E2
:1000400000000000000000000000000000000000B0
:1000500000000000000000000000000000000000A0
:100060000000000000000000000000000000000090
:100070000000000000000000000000000000000080
:100080000000000000000000000000000000000070
:100090000000000000000000000000000000000060
:1000A0000000000000000000000000000000000050
:1000B0000D05000800000000000000000000000026
:1000C00070B5002815D101250A246D422A000121AE
:1000D000002001F093F821000122412000F042F9B4
:1000E000200000F03DFF00222100412000F03AF9FD
:1000F000ECE772B6FEE710B5002809D1012464428E
:1001000022000121002001F079F800F027FAF7E73A
:1001100072B6FEE770470000F0B5002803D1302327
:1001200048700B70F0BD00223023012514009C465E
:100130000B4F6300FE5A634686420CD9302B01D127
:10014000002D02D100258B5401320134052CF0D151
:1001500000238B54E6E7801B013380B2DBB2EBE770
:10016000F01A0008F0B5060087B0002801D072B67A
:10017000FEE700F07DF904A9FFF7CEFF174F04ACAE
:10018000386800F00DFC050023783868002B1DD17D
:100190000F210A2269440A700B3A00F02DFB002D52
:1001A00007D10F48009502232A002900006801F0BA
:1001B00057F800220B48009602231100006801F056
:1001C0004FF8FA20400000F0CBFED2E701222100D8
:1001D0000023524200F010FB0134D5E7A8040020B0
:1001E000AC04002034000020FA21104B10B5186830
:1001F000890001F083FB00F0C3F800F0B7F9012299
:100200000A21412000F08EF800F050F90021412031
:1002100000F0CAF81C2000F099F9002201213C20CE
:1002200000F0B2FA024B186010BDC0462C0000204E
:10023000A804002013B5FFF7D7FF002403233222C0
:1002400000930F49230001940E4800F03FFC0E4B31
:100250003222019301230D4900930D48230000F041
:1002600035FC0C4B3222019302230B4900930B48BF
:10027000230000F02BFC00F003FD200016BDC0465B
:10028000D41A000865010008AC040020DF1A000839
:10029000F700000834000020E41A0008C10000083C
:1002A0000E4B0F49002210B50E488B4203D3033387
:1002B0001A1A920892000C4901F046FA0B4B0C49AD
:1002C00000220C488B4203D303331A1A920892007F
:1002D000002101F0E5F9FFF7ADFFFEE73400002053
:1002E000FDFFFF1F00000020001B00085C1D002018
:1002F000310000203400002030B515000124002D0D
:100300000CD1651E4A43290091402B40934004685C
:100310008C43046001680B43036030BD6400013D01
:10032000EDE7000010B51300034A80028018022296
:10033000FFF7E2FF10BDC04600FCFE4F130010B5F2
:100340008002072905DC054A80180422FFF7D4FF44
:1003500010BD08390729FBD8014AF5E720FCFE4FFC
:1003600024FCFE4F054B8002C01853425A41012322
:1003700012015218934083617047C04600FCFE4F43
:10038000074B821E9A4207D8064B01385860072255
:10039000002098601A60704701204042FBE7C04689
:1003A000FEFFFF0010E000E02A4BF7B51A6880233B
:1003B0000E001168DB020B431360274B1A68802381
:1003C00011685B030B43136031000322FFF7AAFFA0
:1003D0002248002301220F210068FFF78DFF204BE8
:1003E0001C211F68012338001A00FFF785FF002336
:1003F000FA2201939200019B934227DB01231F21E4
:100400001A003800FFF778FF3B68002BFCDB012463
:10041000144B00211A683800136801331360124B23
:1004200022001D6823002C60FFF766FF2B68234223
:10043000FCD08023B4400D4A9B0112682B601168E8
:100440000C4314602A681A42FCD0F7BD019B0133AB
:100450000193D0E7040000202400002008000020C1
:100460001000002000000020180000200C000020D8
:1004700001230B481A00022110B50068FFF73CFF6A
:100480000422084B1B6819681142FCD0064A126806
:100490001068082280B219681142FCD01A6010BDA1
:1004A000100000201800002014000020022210B5C7
:1004B00011004120FFF736FF022203214120FFF700
:1004C00031FF012202214120FFF738FF01220321E1
:1004D0004120FFF733FF8022094B92021B68094C31
:1004E00019680A431A601B680023E1212360064B48
:1004F0004902186801F078F90D23E060236010BD0F
:1005000020000020004400402C00002013B50D4CBA
:10051000206800F051FA031E0DD030236A46D371D3
:100520006B460022D91D206800F0F5F96B46DA7998
:10053000054B9A6213BD012207210348FFF7DCFE39
:10054000F8E7C046A804002000440040024B1A68A7
:1005500001238340136070471C0000208023024A5F
:1005600011680B431360704700440040034B1A6846
:10057000012311680B4313607047C0462800002018
:100580000300083301224360C36003610023524229
:10059000826003607047002303617047020030B53A
:1005A0000C680832631C0AD103695A684A6091607A
:1005B0008B605960036808610133036030BD13002C
:1005C00052681568A542FAD9EFE703694168826865
:1005D0008A6051605968814200D15A6000220261EC
:1005E0001A68013A1A601868704770B51600026CF4
:1005F0000400856B002A09D10668002E12D180689C
:1006000000F0C0FDA6600135A56370BD002E0ED1BF
:10061000406801F099F86368226C9B18A2686360D7
:10062000934201D20020EEE723686360FAE7C068D6
:1006300001F08AF8226CE36851429B1A2268E36059
:10064000934202D2A3685B18E3600020022EDAD145
:100650002B005A1E9341ED1AD5E703001A6C0800CF
:1006600010B5002A0AD0DC689968A418DC608C42B6
:1006700001D31968D960D96801F066F810BD70B56A
:1006800004002600453600F0ABFE35786DB2002D33
:1006900002DD636A002B13D1FF233370260044363A
:1006A00000F0AAFE00F09CFE35786DB2002D02DD50
:1006B0002369002B0ED1FF23337000F09DFE70BD27
:1006C0002000243000F0AEFC002801D000F044FDF2
:1006D000013DDBE72000103000F0A4FC002801D031
:1006E00000F03AFD013DE0E7F8B504000D000028F8
:1006F00001D172B6FEE7C16B002943D0026C0B0C2E
:10070000170C002B31D1002F0BD03B1C081C89B2D9
:1007100092B24A4380B29BB24343120C9B181B0C0B
:1007200030D100F05DFE216CE36B22684B43D018A2
:100730005B1A6260D2182300A060E2600020FF22F2
:100740004433A0631A705A70854212D123698342E0
:1007500007D02000103000F065FC002801D000F028
:1007600033FE00F049FE0120F8BD002F0AD1101C15
:10077000CDE720001030FFF703FF20002430FFF703
:10078000FFFEEEE772B6FEE7F8B505000C001600B6
:1007900000282FD0030C080C002B27D100280BD0E9
:1007A000031C291CA8B2A2B2424389B29BB24B439C
:1007B000120C9B181B0C1DD1200068430300513301
:1007C00018D8503000F0C4FE071E0DD00300002CD6
:1007D00000D050333B6001213800FD633C64FFF7DB
:1007E00083FF3B004C331E703800F8BD002801D158
:1007F000211CD7E772B6FEE7F0B585B004000F0004
:100800001E000192002801D172B6FEE7002904D132
:10081000036C002B01D072B6FEE7022E04D1E36B0D
:10082000012B01D072B6FEE700F09CFC051E1BD028
:10083000002500F0D5FDA26BE36B9A4219D232007D
:1008400039002000FFF7D1FE636A002B03D020009F
:10085000243000F0E7FB002801D000F0B5FD00F0E7
:10086000CBFD012005B0F0BD019B002BE1D072B69D
:10087000FEE7022EE3D0019B002B03D100F0BCFD6C
:100880000020EFE7002D02D102A800F029FC00F0C3
:10089000B3FD00F025FA00F0A3FD220044321378E6
:1008A0005BB2013301D1002313702200453213786B
:1008B0005BB2013301D10023137000F09DFD01A94B
:1008C00002A800F019FC00281FD100F089FDA26BDE
:1008D000E36B9A4210D100F08FFD20000199103097
:1008E00000F08EFB2000FFF7CAFE00F0B3FA0028EC
:1008F00009D100F069FD06E000F07EFD2000FFF761
:10090000BEFE00F0A7FA012593E72000FFF7B7FE2F
:1009100000F0A0FAB4E7F0B585B00400170001912B
:10092000002801D172B6FEE7019B002B04D1036CB5
:10093000002B01D072B6FEE700F06CFDA66B0390B1
:10094000002E1AD02300443302931D782000019911
:10095000013E6DB2FFF781FEA6636B1C13D12369C4
:10096000002B09D02000103000F05CFB002803D0E1
:10097000002F01D001233B600126039800F04EFDBB
:10098000300005B0F0BD00F0B3F98542F4D27F2D00
:1009900001D172B6FEE7029B01356DB21D70EBE727
:1009A00010B5041E01D172B6FEE700F019FDA46B6C
:1009B00000F022FD200010BD002801D172B6FEE734
:1009C000806B7047F8B504001B4B1C4D1E682868EF
:1009D0000F000430FFF7F9FD631C14D1002F12D073
:1009E000174B29685A688A6090682968C860296826
:1009F000043141602968043191602A6853611A68A2
:100A000001321A60F8BD2B6834195C60A64206D921
:100A10000C4B186829680431FFF7C0FDF2E70A4B58
:100A2000186829680431FFF7B9FD084B1A68A2421B
:100A3000E8D91C60E6E7C046541D002038000020BD
:100A40002C1D0020440000203C000020F81C002049
:100A5000064A13681968064B002903D10122524245
:100A60001A6070471268D2681268F9E73C000020EB
:100A7000F81C002070B5114C2368002B06D1104BD8
:100A80001B68012BF7D900F09FFCF4E700F0A8FCED
:100A90000C4BDB68DD68281DFFF797FD0A4A1368D9
:100AA000013B13602368013B236000F0A5FC286B29
:100AB00000F0D0FD280000F0CDFDDCE7B41C0020E4
:100AC00048000020401D0020B01C0020F0B594001C
:100AD00089B0029020000D00039300F039FD05A9B4
:100AE0000600A0B2FFF718FB002E03D10120404200
:100AF00009B0F0BD602000F02BFD071E00D1A1E081
:100B00006022002100F0CCFD220030003E63A521D0
:100B100000F0C6FD3B6B221F9E18072296437E64A1
:100B2000002D0DD0390000233431EA5CCA54002A6C
:100B300002D00133102BF8D13B00002243331A704E
:100B40000E9B372B01D972B6FEE70E9BFB623B650D
:100B50003B1D18000193FFF71EFD38001830FFF70A
:100B60001AFD38230E9A30009B1ABB61039A029932
:100B70003F617F6200F016FC0F9B3860002B00D0B5
:100B80001F6000F02DFC314B314D1A68314E01329F
:100B90001A602C68002C4AD12F601B68012B1ED1D3
:100BA0001420604301343018FFF7EAFC382CF7D1E9
:100BB000294C2000FFF7E4FC284B18000293FFF7B4
:100BC000DFFC2748FFF7DCFC2648FFF7D9FC264866
:100BD000FFF7D6FC254B029A1C60254B1A60254A6C
:100BE000136801331360BB64234BFA6A19688A42A5
:100BF00000D91A6014235343F1184A68019C906885
:100C0000BA60F86044609460F25879610132F25041
:100C100000F0F2FB194B1B68002B06D02B68DA6A38
:100C2000FB6A9A4201D200F0CFFB012060E7134B30
:100C30001A68FB6A002AD2D12A68D26A9A42CED8B0
:100C40002F60CCE7300000F005FD4FE7B01C00201E
:100C50003800002048000020C41C0020D81C0020C0
:100C60000C1D0020401D00202C1D00203C000020F9
:100C700044000020BC1C0020C01C0020201D0020BF
:100C800013B500240F4B802201930F4923000F4816
:100C90000094FFF71BFF01280FD172B601220C4B05
:100CA00052421A600B4B18600B4B1C60FFF732FA74
:100CB00000F00CFC094B1B6813BD0130FAD172B671
:100CC000FEE7C046F01C0020EA1A0008750A00087A
:100CD000F81C0020201D0020541D0020FC1A0008D4
:100CE000024A1368013313607047C046B81C0020E5
:100CF000014B18687047C046B01C0020F0B54A4B45
:100D000085B01B68002B00D085E0484B1F68013779
:100D10001F60002F11D1464B1A681268002A01D0BB
:100D200072B6FEE7434A1968106818601160424ABB
:100D3000136801331360FFF78BFE404B00201B68E4
:100D40009F420FD214223E4B1B68D96A3D4B4A4347
:100D5000D358012B00D901203B4B1B68002B60D1DD
:100D600005B0F0BD324B02934BE0029B1B68DB6881
:100D7000DB685A68974201D2304B4AE09C68D968D8
:100D80005A69A1604C601C1D019454681D1DAC4241
:100D900000D15160002159611168013911609A6ACE
:100DA000002A0ED0DC69196A5568A1604C601C00ED
:100DB0001834A54200D151600021996211680139AF
:100DC0001160224AD96A1468A14200D91160142422
:100DD0004C431C4A151903956D680192AE681A1DA3
:100DE0009D60DE607260AA60039A5A61019B019A5D
:100DF000E3580133A350124B1B68DB6A994200D9B8
:100E00000120029B1B681B68002BAED101220B4BFB
:100E100052421A6096E70E4A0020136801331360AD
:100E20009EE701209CE7C046B81C0020541D00200E
:100E30003C00002044000020FC1C0020F81C002086
:100E40003800002048000020581D0020C01C002051
:100E5000081D0020F7B53A4C2368002B01D172B66B
:100E6000FEE700F0BDFA2368013B23602368002BF6
:100E700004D0002400F0C0FA2000FEBD314A126800
:100E8000002AF6D0304A01923BE0019BDB68DB6828
:100E9000D869196A9A6A81604860180054681830E5
:100EA000844200D1516000219962116801391160BA
:100EB0005A699868D9681D1D816048605068A842C9
:100EC00000D15160116801391160204AD96A106857
:100ED000814200D91160142048431D4A17187C68CC
:100EE000A6689C60DE607560A56084585F6101340F
:100EF0008450184A1268D26A914202D30121164ADC
:100F00001160019A1268002ABFD1002B01D0FFF7AF
:100F10009FFD124D2C68002C0AD00126FFF7EEFE33
:100F2000002801D00C4B1E60013C002CF6D12C6037
:100F3000094B1B68002B9CD000F046FA012499E76E
:100F4000B81C0020B01C00200C1D0020C01C00207C
:100F50004800002038000020581D0020081D0020F7
:100F600070B5041E02D100F02FFA70BD084B1D6849
:100F7000002D01D072B6FEE7FFF7B2FE2900200077
:100F8000FFF720FDFFF766FF0028ECD0EDE7C04635
:100F9000B81C0020154B30B51A68154B002A02D03A
:100FA00001221A6030BD142512481A6002681249E5
:100FB0002B0053435C58002C12D0CC1865680833C2
:100FC0006D685B1865609D4201D16B686360142396
:100FD0005343C9184B68D968084B19600260E1E7B0
:100FE000002A01D172B6FEE7013AE1E7B81C002001
:100FF000581D0020C01C00204800002038000020A0
:1010000010B50C00002801D172B6FEE7044B196838
:101010001831FFF7C3FA01212000FFF7D3FC10BD00
:1010200038000020C368F0B5DB68002B01D172B630
:10103000FEE7D869196A9A6A8160486018005468A6
:101040001830844200D15160002199621168DC6A35
:10105000013911601C4A1268002A29D15A6998681E
:10106000D9681D1D816048605068A84200D1516058
:10107000116801391160154A11688C4200D9146059
:1010800014216143124A5618706887689860DF60BF
:101090007D6085605E618B5801338B500D4B002065
:1010A0001B68DB6A9C4202D90B4B01301860F0BD13
:1010B0000A4A51688D68D9611D62686088609A62C9
:1010C000136801331360E9E7B81C0020C01C00203E
:1010D0004800002038000020581D00200C1D002072
:1010E000034B1B680360034B1B6843607047C0469B
:1010F000FC1C0020541D002070B504000D000028C9
:1011000001D172B6FEE7002901D172B6FEE700F008
:1011100067F90F4B19682B685A1C17D00D482668C1
:1011200000686268864208D08A4206D800230124FB
:101130002B6000F061F9200070BD881A8342F5D958
:101140005B1A9B1820002B60FFF7CAFF0024F0E712
:10115000541D0020FC1C00200122014B1A60704726
:10116000581D0020054B01201B68002B04D0044BA8
:1011700018684342584140007047C046201D002077
:10118000B81C002070B5041E01D1002070BD184BA2
:101190001B68834201D072B6FEE75B6D002B01D164
:1011A00072B6FEE7C16A026D013B43659142ECD025
:1011B000002BEAD1051D2800FFF707FA3823216D1F
:1011C0005B1AA3610B4BE1621A68914200D9196066
:1011D00014224A43084B981841688E68A160E66063
:1011E00075608D60D158606101310120D150CDE72B
:1011F00038000020C01C00204800002070B50E0000
:101200001500002801D072B6FEE700F0E9F8134C93
:1012100023689B6D002B0AD1012123685C33197070
:10122000002D04D02800FFF7CDFB00F0CDF800F032
:10123000E3F800F0D5F823689D6D002D05D000225D
:101240002368002E00D16A1E9A65002223685C3351
:101250001A7000F0D1F8280070BDC0463800002098
:10126000F8B5069F040015001E00002901D072B6D3
:10127000FEE7002801D172B6FEE700F0B1F8002FBA
:1012800001D0A36D3B60230002215C331A781970F2
:10129000D2B2042E37D8300000F09CFA06032E3369
:1012A0003100A36D2B43A365012A39D16369A1687D
:1012B000E268251D8A6051605968A94200D15A60D0
:1012C0001A68E16A013A1A60194B1A68914200D90A
:1012D000196014224A43174B9E1870688768A060F3
:1012E000E7607D608560D05866610130D050A36AA8
:1012F000002B0ED072B6FEE7A36D0133D3E7022AAE
:1013000013D0A565D0E70C4B1B68002BCCD072B670
:10131000FEE70A4B1B68DB6A994201D900F054F8DA
:10132000012400F069F82000F8BD0024F9E7C04668
:10133000C01C002048000020541D00203800002060
:10134000002382B00193064B1B68013301D072B6B3
:10135000FEE772B6019B002BFCD002B07047C0467E
:10136000300000200000000000000000000000002D
:101370000B4A13681868203080F30988022080F334
:101380001488BFF36F8F3FBCAE4608BC04BC62B686
:101390001847C046C046C046C046C046C046C046C4
:1013A0003800002010B58024031F64041C60043B37
:1013B00019600349043B1960143B40381A6010BDA2
:1013C00041130008704700008022044B52051A6048
:1013D000BFF34F8FBFF36F8F7047C04604ED00E03F
:1013E00072B6044A136801331360BFF34F8FBFF323
:1013F0006F8F704730000020054A1368002B01D121
:1014000072B6FEE7013B1360002B00D162B6704755
:1014100030000020EFF3108072B6704780F3108820
:101420007047000000000000000000000000000005
:10143000EFF309800E4B1A6820381060F0C0444664
:101440004D4656465F46F0C008B572B6FFF7A2FD9E
:1014500062B60CBC116808681030F0C8A046A946F6
:10146000B246BB4680F309882038F0C81847C0460A
:101470003800002010B5FFF7CDFF0400FFF73EFC59
:10148000002803D08022034B52051A602000FFF78A
:10149000C5FF10BD04ED00E00023FA2110B5074A96
:1014A000074C890023601360064B186800F09CF914
:1014B000054B013818600723236010BD18E000E0D9
:1014C00010E000E02C00002014E000E0FF220C4BB4
:1014D0001204196810B50A431A60FF220024196823
:1014E00012060A431A60FFF7D7FF064B1C60FFF78E
:1014F0003FFFFFF74FFDFFF723FF200010BDC04661
:1015000020ED00E03000002030B50F4B1A001B68C2
:101510008342FBD354681119884203D141681000FB
:1015200009195160446819000519AB4207D10749F0
:1015300009688B4203D05968091941601968016034
:10154000904200D0106030BD241D002040000020DB
:10155000F8B50400FFF7C4FB384A1368002B1CD110
:1015600037490733194241D0C8189843C0235B015B
:10157000CB1801001B1A0020324DCB18686029607F
:101580000725083BAB43186058601360581A0B607E
:101590002D4B486018602D4B1860002C44D0072359
:1015A000234019001139A14244D31034A446E71A4C
:1015B000002F3FDD25490E68BE423BD321490D680F
:1015C0006868B84202D22C68002C12D11268AA4274
:1015D00030D02A680C680A6062469B1A1B18102BD0
:1015E0000ED9E819420707D072B6FEE7C0235B01A7
:1015F000C1E729002500E3E743606F60FFF784FF40
:101600006A68124BB61A1E600F4B19688E4200D2E0
:101610001E6080231B0613436B6000230C4A2B6063
:101620001368083401331360FFF714FC630703D019
:1016300072B6FEE70024F7E72000F8BD4000002066
:10164000B0040020241D0020F41C0020EC1C00200D
:10165000001D002010B5041E1DD0083C6368002B3F
:1016600001DB72B6FEE72268002A01D072B6FEE7FF
:101670005B005B086360FFF733FB074A6368116830
:1016800020005B181360FFF73FFF044A1368013323
:101690001360FFF7DFFB10BDEC1C0020041D0020D1
:1016A000F0B50500830749D0541E002A45D0030039
:1016B0000326CAB202E00135013C3ED301332A7051
:1016C0003342F8D1032C30D9FF220A401502AD185D
:1016D0002A04AD180F2C34D92700103F3F093E01D2
:1016E000B4461E001A0010366644156055609560B9
:1016F000D56010329642F8D101373F01DB190F2730
:101700000C22274022403C00002A0ED03E1FB60883
:10171000B400A4461A001C1D644420C2A242FCD19D
:1017200003240136B6009B193C40002C05D0C9B2F9
:101730001C19197001339C42FBD1F0BD0300140049
:10174000C0E72700E2E7C046F0B505000F2A31D90F
:1017500003273E000D430C0003002E402F4234D1DE
:101760001500103D2D09AC462F013F1865685D60DE
:10177000A5689D60E568DD60256810341D601D006A
:101780001033BD42F2D165460F230C2401352D01E3
:1017900049191340451914421AD0043B9B080133E0
:1017A0009B008C59AC5104369E42FAD10323AD19EB
:1017B00089191A40561E002A06D00023CC5C1A0054
:1017C000EC5401339642F9D1F0BD0500561EF4E702
:1017D0001A00EFE702B4714649084900095C490064
:1017E0008E4402BC7047C046002243088B4274D32B
:1017F00003098B425FD3030A8B4244D3030B8B4212
:1018000028D3030C8B420DD3FF22090212BA030C1A
:101810008B4202D31212090265D0030B8B4219D3FB
:1018200000E0090AC30B8B4201D3CB03C01A52411B
:10183000830B8B4201D38B03C01A5241430B8B4263
:1018400001D34B03C01A5241030B8B4201D30B034C
:10185000C01A5241C30A8B4201D3CB02C01A524173
:10186000830A8B4201D38B02C01A5241430A8B4236
:1018700001D34B02C01A5241030A8B4201D30B021F
:10188000C01A5241CDD2C3098B4201D3CB01C01A39
:10189000524183098B4201D38B01C01A5241430943
:1018A0008B4201D34B01C01A524103098B4201D331
:1018B0000B01C01A5241C3088B4201D3CB00C01A9E
:1018C000524183088B4201D38B00C01A5241430816
:1018D0008B4201D34B00C01A5241411A00D201463B
:1018E000524110467047FFE701B5002000F0F0F8C4
:1018F00002BDC0460029F7D076E7704703460B4388
:101900007FD4002243088B4274D303098B425FD3F8
:10191000030A8B4244D3030B8B4228D3030C8B4224
:101920000DD3FF22090212BA030C8B4202D312120A
:10193000090265D0030B8B4219D300E0090AC30BDF
:101940008B4201D3CB03C01A5241830B8B4201D38C
:101950008B03C01A5241430B8B4201D34B03C01A75
:101960005241030B8B4201D30B03C01A5241C30AED
:101970008B4201D3CB02C01A5241830A8B4201D35E
:101980008B02C01A5241430A8B4201D34B02C01A48
:101990005241030A8B4201D30B02C01A5241CDD2ED
:1019A000C3098B4201D3CB01C01A524183098B4238
:1019B00001D38B01C01A524143098B4201D34B0121
:1019C000C01A524103098B4201D30B01C01A524184
:1019D000C3088B4201D3CB00C01A524183088B420B
:1019E00001D38B00C01A524143088B4201D34B00F4
:1019F000C01A5241411A00D2014652411046704766
:101A00005DE0CA0F00D04942031000D3404253406A
:101A100000229C4603098B422DD3030A8B4212D32A
:101A2000FC22890112BA030A8B420CD3890192115C
:101A30008B4208D3890192118B4204D389013AD099
:101A4000921100E08909C3098B4201D3CB01C01A6E
:101A5000524183098B4201D38B01C01A5241430981
:101A60008B4201D34B01C01A524103098B4201D36F
:101A70000B01C01A5241C3088B4201D3CB00C01ADC
:101A8000524183088B4201D38B00C01A5241D9D2F4
:101A900043088B4201D34B00C01A5241411A00D275
:101AA0000146634652415B10104601D34042002B71
:101AB00000D54942704763465B1000D3404201B5F0
:101AC000002000F005F802BD0029F8D016E77047A5
:041AD0007047C04655
:101AD40054656D7053656E736F7200556172740056
:101AE400426C696E6B0049444C4500001027E803C2
:0C1AF40064000A00010000003700000040
:101B0000B4240140082701400C240140282401404E
:101B100008240140402401400024014000E100E08D
:101B20003C1002404010024034100240006CDC02C5
:041B3000AAAAAAAA09
:04000005080002A14C
:00000001FF
